S00F000070726F6A6563742E737265631E
S11300000C942A000C9490080C9447000C9447001C
S11300100C9447000C9447000C9447000C94470040
S11300200C9447000C9447000C9447000C94470030
S11300300C9447000C9447000C9447000C94470020
S11300400C9447000C9447000C9447000C94470010
S11300500C94470011241FBECFE5D8E0DEBFCDBF0E
S113006010E0A0E6B0E0E8EAF7E102C005900D92E6
S1130070A43AB107D9F721E0A4EAB0E001C01D9287
S1130080A235B207E1F70E946A080C94D20B0C94D3
S1130090000060E081E00E94510760E080E80E9477
S11300A051071092A5001092A6001092A70010927A
S11300B0A8001092FE001092A9001092AA001092BB
S11300C0AB001092AC001092A40081E080934F0129
S11300D00895CF92DF92EF92FF92CF930E949706FA
S11300E0C82F682F70E080E090E00E948C0A6B01BA
S11300F07C016093A5007093A6008093A700909361
S1130100A80020E030E0A9010E94DF09882309F457
S113011044C120E030E044E752E4C701B6010E9444
S1130120DF0981112DC0E091FE00F0E0EE0FFF1F0A
S1130130EE0FFF1FE150FF4F8C2F90E0A0E0B0E0E6
S113014080839183A283B38361E08C2F0E94510743
S1130150E091FE00EF5FE093FE00F0E0EE0FFF1F82
S1130160EE0FFF1FE150FF4F8FE390E0A0E0B0E0FF
S113017080839183A283B38382E080934F010DC176
S113018020E030E048E252E4C701B6010E94DF09F2
S11301908823C9F120E030E04CE252E4C701B60103
S11301A00E94DF09882379F120E030E044E352E43F
S11301B0C701B6010E94DF09882359F020E030E02E
S11301C04CE352E4C701B6010E94DF098823D9F049
S11301D03EC08091FD00811104C081E08093FD0048
S11301E004C0813011F41092FD0061E08DE20E94A0
S11301F051072FEB87E299E0215080409040E1F7CE
S113020000C00000CAC0E091FE00F0E0EE0FFF1F46
S1130210EE0FFF1FE150FF4F8C2F90E0A0E0B0E005
S113022080839183A283B38361E08C2F0E94510762
S11302308091FE008F5F8093FE002FEB87E299E0B0
S1130240215080409040E1F700C00000A6C020E0AB
S113025030E046E852E4C701B6010E94DF0981118B
S113026003C010924F0199C020E030E040E452E412
S1130270C701B6010E94DF09811120C0E091FE0090
S1130280F0E0EE0FFF1FEE0FFF1FE150FF4F108253
S113029011821282138261E080E30E9451078091EF
S11302A0FE008F5F8093FE002FEB87E299E02150E0
S11302B080409040E1F700C000006FC08091FD00D5
S11302C0882309F447C0E091FE00AE2FB0E0AA0FE6
S11302D0BB1FAA0FBB1FA150BF4F4DE250E060E00F
S11302E070E04D935D936D937C931397C1E0CE0FB3
S11302F0C093FE00C701B60190586093A5007093A7
S1130300A6008093A7009093A8001092FD000E947D
S1130310560AEC2FF0E0EE0FFF1FEE0FFF1FE15027
S1130320FF4F608371838283938388279927861B79
S1130330970B0E94CB078091FE008F5F8093FE0095
S11303402FEB87E299E0215080409040E1F700C014
S1130350000023C0E091FE00F0E0EE0FFF1FEE0F5F
S1130360FF1FE150FF4F8C2F90E0A0E0B0E08083AE
S11303709183A283B3838C2F90E00E94CB0780915A
S1130380FE008F5F8093FE002FEB87E299E02150FF
S113039080409040E1F700C00000CF91FF90EF90C3
S11303A0DF90CF9008958F929F92AF92BF92CF9299
S11303B0DF92EF92FF92C090A900D090AA00E09043
S11303C0AB00F090AC0046015701E894B7F8C501C2
S11303D0B4010E945D0A0E948C0A9B01AC01C50114
S11303E0B4010E94720920E030E44CE156E40E941A
S11303F0430B4B015C0120E030E0A901C701B601C9
S11304000E94DF09811109C060E080EC0E9451075D
S113041061E080E30E9451073BC020E030E0A90185
S1130420C701B6010E94DF0988230CF560E080EC67
S11304300E94510761E08DE20E9451078091A9005A
S11304409091AA00A091AB00B091AC00BC01CD0189
S113045090586093A9007093AA008093AB00909386
S1130460AC000E945D0ACB010E94CB0711C060E082
S113047080EC0E9451076091A9007091AA008091BC
S1130480AB009091AC000E945D0ACB010E94CB07A7
S113049020E030E0A901C501B4010E943E0B18160A
S11304A08CF461E08EE20E94510720E030E0A90163
S11304B0C501B4010E94DF09811115C061E080E328
S11304C00E94510720E030E046E852E46091A50024
S11304D07091A6008091A7009091A8000E94DF0966
S11304E0811109C020C0C501B4010E945D0ACB017D
S11304F00E94CB07E7CF0E949706682F70E080E048
S113050090E00E948C0A6093A5007093A6008093EB
S1130510A7009093A80020E030E046E852E40E944F
S1130520DF098111E8CF10924F01FF90EF90DF9027
S1130530CF90BF90AF909F908F900895CF93DF930B
S1130540EC0160E081E00E945107CE010E94B407F3
S113055020E030E046E852E46091A5007091A600E6
S11305608091A7009091A8000E94DF098823C1F020
S11305700E949706682F70E080E090E00E948C0A49
S11305806093A5007093A6008093A7009093A800A1
S113059020E030E046E852E40E94DF098111E8CF10
S11305A010924F01DF91CF910895CF92DF92EF9295
S11305B0FF920F931F93CF93DF93EFEFE80FF09029
S11305C0A4002F2D64E02602D0011124A150BF4FB6
S11305D04D915D916D917C911397772374F470958F
S11305E06095509541955F4F6F4F7F4F4D935D934D
S11305F06D937C931397AFEF01C0A1E0EE23A9F1B3
S11306008250F1E0FF0D21C0440F551F661F771F74
S11306108A019B01000F111F221F331F000F111F9E
S1130620221F331F400F511F621F731F9F5F9E13B2
S1130630EBCF488359836A837B83811103C0F09392
S1130640A40013C0E1508150FF5FCFEFCF0FEE2322
S1130650C9F394E0C902E0011124C150DF4F48817D
S113066059816A817B8190E0CFCF9091A400CF2DF6
S1130670D0E0292F092E000C330B2C173D07DCF09A
S1130680892F20E030E0A90164E08602F001112402
S1130690E150FF4FC080D180E280F3802C0D3D1DDE
S11306A04E1D5F1D8150682F082E000C770B6C17B0
S11306B07D0754F703C020E030E0A9019E5F9093CA
S11306C0A4000A2E000CBB0B0E94BF0BDF91CF913C
S11306D01F910F91FF90EF90DF90CF900895EF92CC
S11306E0FF920F931F93CF93DF938091FF0090911C
S11306F00001A0910101B0910201AC01BD014A5277
S1130700510961097109423051056105710598F07B
S1130710AC01BD014D7F4D3251056105710559F0A4
S11307208D339105A105B10531F08F339105A105F4
S1130730B10541F4ECC080E690E00E949E02109264
S11307404F01E8C0C0E0D0E010E0AC01BD014A5266
S1130750510961097109423051056105710560F063
S1130760AC01BD014D7F4D3251056105710521F08C
S1130770CD97A105B10531F5FE01EE0FFF1FEE0F78
S1130780FF1FED5FFE4F80819181A281B381AC0197
S1130790BD014A525109610971094230510561058F
S11307A0710560F0AC01BD014D7F4D32510561050D
S11307B0710521F0CD97A105B10521F48EE690E0F5
S11307C00E949E02FE01EE0FFF1FEE0FFF1FE1507D
S11307D0FF4F80819181A281B3818F97A105B105DB
S11307E091F4CC0FDD1FCC0FDD1FCD5FDE4F888170
S11307F09981AA81BB81892B8A2B8B2B21F48BE7CE
S113080090E00E949E021F5FC12FD0E0FE01EE0F18
S1130810FF1FEE0FFF1FE150FF4F80819181A281E6
S1130820B3818F339105A105B10509F08ECF4091B5
S1130830FF005091000160910101709102014F335A
S113084051056105710509F462C0C0E0D0E080E0A3
S1130850F12CE12C8A019B010A5211092109310969
S1130860023011052105310578F08A019B010D7FC5
S11308700D3211052105310539F04D33510561055E
S1130880710511F08F5F2FC0882391F00E94D5026B
S11308900E2D10E0000F111F000F111F03551F4FE5
S11308A00E948E0AF8016083718382839383E394A8
S11308B00E2D10E0000F111F000F111F03551F4FC5
S11308C0CC0FDD1FCC0FDD1FC150DF4F6881798154
S11308D08A819B810E948E0AF801608371838283DE
S11308E09383E39480E0F394CF2DD0E0FE01EE0FE8
S11308F0FF1FEE0FFF1FE150FF4F408151816281C6
S113090073814F3351056105710509F0A3CF83E06D
S113091080934F01DF91CF911F910F91FF90EF9042
S113092008951F93CF93DF9311E0180FC82FD0E0E1
S1130930FE01EE0FFF1FEE0FFF1FE755FF4F20E0F4
S113094030E044E752E460817181828193810E94A6
S1130950DF09882361F1212F30E0F901EE0FFF1F39
S1130960EE0FFF1FE355FF4F80819181A281B38178
S1130970CC0FDD1FCC0FDD1FC355DF4F8883998358
S1130980AA83BB831F5FE901220F331F220F331F8A
S1130990F901E755FF4F20E030E044E752E460817D
S11309A07181828193810E94DF098111D4CFDF910B
S11309B0CF911F9108958F929F92AF92BF92CF9241
S11309C0DF92EF92FF920F931F93CF93C0E00FC07B
S11309D020E030E044E352E4C701B6010E94DF099D
S11309E0811104C08C2F0E94910401C0CF5F24E0C8
S11309F0C202F0011124E355FF4FC080D180E28090
S1130A00F38020E030E044E752E4C701B6010E94DD
S1130A10DF098111DDCFC090AD00D090AE00E09031
S1130A20AF00F090B00020E030E044E752E4C701AA
S1130A30B6010E94DF09882309F443C100E010E0F5
S1130A40C0E020E030E048E252E4C701B6010E9471
S1130A50DF09811122C0C801880F991F880F991FCF
S1130A60DC01A755BF4F7D01FC01EF54FF4F2D91D1
S1130A703D914D915C9160817181828193810E944D
S1130A80430BF70160837183828393838C2F0E94CD
S1130A9091048C2F0E949104C0E0CF5F0C2F0C2E88
S1130AA0000C110BF801EE0FFF1FEE0FFF1FE355B3
S1130AB0FF4FC080D180E280F38020E030E044E743
S1130AC052E4C701B6010E94DF098111BACFC09078
S1130AD0AD00D090AE00E090AF00F090B00020E008
S1130AE030E044E752E4C701B6010E94DF098823DD
S1130AF009F4E7C000E010E0C0E020E030E04CE39F
S1130B0052E4C701B6010E94DF09811123C0C80164
S1130B10880F991F880F991F9C0127553F4F790112
S1130B20FC01EF54FF4F2081318142815381D70171
S1130B306D917D918D919C910E94E409F7016083F0
S1130B407183828393838C2F0E9491048C2F0E9443
S1130B509104C0E0CF5F0C2F0C2E000C110BF80198
S1130B60EE0FFF1FEE0FFF1FE355FF4FC080D18034
S1130B70E280F38020E030E044E752E4C701B601AC
S1130B800E94DF098111B9CFC090AD00D090AE00B2
S1130B90E090AF00F090B00020E030E044E752E491
S1130BA0C701B6010E94DF09882309F48AC000E066
S1130BB010E0C0E020E030E04CE252E4C701B601AE
S1130BC00E94DF09811123C0C801880F991F880F73
S1130BD0991F9C0127553F4F7901FC01EF54FF4FAA
S1130BE0D9012D913D914D915C91608171818281FA
S1130BF093810E947309F7016083718382839383D5
S1130C008C2F0E9491048C2F0E949104C0E0CF5F2E
S1130C100C2F0C2E000C110BF801EE0FFF1FEE0F22
S1130C20FF1FE355FF4FC080D180E280F38020E0B6
S1130C3030E044E752E4C701B6010E94DF098111A4
S1130C40B9CFC090AD00D090AE00E090AF00F0906E
S1130C50B00020E030E044E752E4C701B6010E944E
S1130C60DF09882371F18090A9009090AA00A090D8
S1130C70AB00B090AC00C0E0A7019601C501B4017F
S1130C800E9473094B015C01CF5F24E0C202F001B2
S1130C901124E355FF4FC080D180E280F38020E02F
S1130CA030E044E752E4C701B6010E94DF09811134
S1130CB0E3CF8092A9009092AA00A092AB00B092D8
S1130CC0AC0084E080934F01CF911F910F91FF906E
S1130CD0EF90DF90CF90BF90AF909F908F9008954A
S1130CE080E487B986B1876886B90895369A3699BB
S1130CF0FECF24B185B190E0982F8827820F911DF3
S1130D00089581E487B986B1876886B90895369ACB
S1130D103699FECF24B185B190E0982F8827820FB1
S1130D20911D089580EF84BB8FE085BB08958FEEFD
S1130D3085BB109250019899ADC00CC083B3B90122
S1130D4090E0022E02C0959587950A94E2F780FD03
S1130D5008C002C060E070E0FB01EA57FF4F8081E9
S1130D6008954F5F409350012F5F3F4F443031F758
S1130D708FE295E70197F1F700C000008FED85BB86
S1130D801092500198997FC00CC083B3B90190E0D0
S1130D90022E02C0959587950A94E2F780FD08C05B
S1130DA002C060E070E0FB01EA57FF4F84810895C0
S1130DB04F5F409350012F5F3F4F443031F78FE234
S1130DC095E70197F1F700C000008FEB85BB109207
S1130DD05001989951C00CC083B3B90190E0022E20
S1130DE002C0959587950A94E2F780FD08C002C079
S1130DF060E070E0FB01EA57FF4F808508954F5F84
S1130E00409350012F5F3F4F443031F78FE295E715
S1130E100197F1F700C000008FE785BB10925001E5
S1130E20989923C00CC083B3B90190E0022E02C08C
S1130E30959587950A94E2F780FD08C002C060E0AA
S1130E4070E0FB01EA57FF4F848508954F5F40939C
S1130E5050012F5F3F4F443031F78FE295E7019700
S1130E60F1F700C0000080E0089581E08093500114
S1130E7021E030E041E0D7CF81E08093500121E0D0
S1130E8030E041E0A9CF81E08093500121E030E0DF
S1130E9041E07BCF81E08093500121E030E041E0EC
S1130EA04DCF611102C0C19801C0C19A882314F0CA
S1130EB0DF9801C0DF9A86FD02C0DE9801C0DE9A89
S1130EC085FD02C0DD9801C0DD9A84FD02C0DC9876
S1130ED001C0DC9AC39AE7EBFBE03197F1F700C05D
S1130EE00000C39883FD02C0DF9801C0DF9A82FD31
S1130EF002C0DE9801C0DE9A81FD02C0DD9801C007
S1130F00DD9A80FD02C0DC9801C0DC9AC39A87EBAD
S1130F109BE00197F1F700C00000C39808958AB3DD
S1130F20806F8ABB87B38E6087BB60E082E00E94DB
S1130F30510760E088E20E94510760E081E00E946E
S1130F40510760E086E00E94510760E080E80E945B
S1130F50510760E08EE00E9451078FE59AEE0197F9
S1130F60F1F700C0000008950F931F93CF93FC0185
S1130F708081882361F08F01C0E061E00E94510705
S1130F80CF5FF801EC0FF11D80818111F6CFCF9175
S1130F901F910F9108950F931F93CF93DF93CDB7B4
S1130FA0DEB72A970FB6F894DEBF0FBECDBFFC01A3
S1130FB0892B09F44BC040E001C0452F51E0540F88
S1130FC001E010E00C0F1D1F040F111D47FD1A95C1
S1130FD09F01ADECBCEC0E94B00B9695879596955D
S1130FE08795969587959C01220F331F880F991F2B
S1130FF0880F991F880F991F820F931F9F01281B29
S1131000390BC901805DD8018C939F01ADECBCEC18
S11310100E94B00BFC01F695E795F695E795F695D9
S1131020E795309751F644238CF01FEF140FE1E05D
S1131030F0E0EC0FFD1FE40FF11D47FDFA9561E0B0
S113104080810E945107412F11237CF72A960FB605
S1131050F894DEBF0FBECDBFDF91CF911F910F91EA
S113106008958FB583688FBD8EB589608EBD089550
S1131070682F70E080E090E00E948E0A24E13EEA4E
S113108043E251E40E94430B0E945D0A7BBD6ABDAA
S113109008958FB583628FBD8EB589608EBD089526
S11310A0682F70E080E090E00E948E0A24E13EEA1E
S11310B043E251E40E94430B0E945D0A79BD68BD7E
S11310C00895549A539A579A569A80E88FBF8DE49C
S11310D089B908950E9461080E9431080E94490854
S11310E00E9492060E948F0781E08093510182E062
S11310F085BF80E48BBF80E88FBF80915101813030
S113110011F40E94A70880915101823011F40E94C9
S1131110F90880915101833081F70E942009EDCFB5
S11311201F920F920FB60F9211248F938091510149
S11311308F5F843018F48093510103C081E0809361
S113114051018F910F900FBE0F901F9018950E9420
S113115070068D9A8C9A60E08CE00E94510760E0E2
S113116080E80E94510786E990E00E94B40760E09D
S113117080EC0E9451070E9476060E94CB070E94D1
S113118076069C0124563109283C310538F484E65E
S11311900E94380884E10E94500808959C012C5252
S11311A031402C32314038F486E40E94380888E219
S11311B00E94500808959C01285532402C32314039
S11311C038F48EE10E9438088CE30E945008089598
S11311D08438934038F08AE00E94380880E50E9401
S11311E05008089580E00E94380880E00E9450086A
S11311F00895CF93DF930E94810660E08CE00E9403
S113120051078D988C988B9A0E948706EC0160E0B8
S113121080E80E9451078DE990E00E94B40760E0E5
S113122080EC0E9451070E9487060E94CB07CD32B2
S1131230D14010F4939A01C09398DF91CF9108950F
S113124093980E94490080914F01813051F480911C
S11312505101833071F50E94690080914F01813002
S113126049F080914F01823081F4809151018330A3
S113127031F0089580915101833069F31AC00E94BE
S11312806F0380914F01823049F080914F01833088
S113129081F480915101833031F00895809151019E
S11312A0833069F308950E94DB0480914F018330F9
S11312B049F080914F018430A1F480915101833031
S11312C031F0089580915101833069F308950E94AB
S11312D0D30180914F01843021F4809151018330F6
S11312E0B1F308955058BB27AA270E948A090C9489
S11312F0040B0E94F60A38F00E94FD0A20F039F42B
S11313009F3F19F426F40C94F30A0EF4E095E7FBDE
S11313100C94ED0AE92F0E94150B58F3BA176207D3
S113132073078407950720F079F4A6F50C94370B1E
S11313300EF4E0950B2EBA2FA02D0B01B9019001EC
S11313400C01CA01A0011124FF27591B99F0593F30
S113135050F4503E68F11A16F040A22F232F342F78
S11313604427585FF3CF469537952795A795F040C6
S11313705395C9F77EF41F16BA0B620B730B840BDB
S1131380BAF09150A1F0FF0FBB1F661F771F881F93
S1131390C2F70EC0BA0F621F731F841F48F48795EB
S11313A077956795B795F7959E3F08F0B0CF9395DD
S11313B0880F08F09927EE0F9795879508950E9456
S11313C0C90A08F481E008950E94F8090C94040BFA
S11313D00E94FD0A58F00E94F60A40F029F45F3F8B
S11313E029F00C94ED0A51110C94380B0C94F30A67
S11313F00E94150B68F39923B1F3552391F3951BC0
S1131400550BBB27AA2762177307840738F09F5F21
S11314105F4F220F331F441FAA1FA9F335D00E2E8E
S11314203AF0E0E832D091505040E695001CCAF7FB
S11314302BD0FE2F29D0660F771F881FBB1F2617BE
S113144037074807AB07B0E809F0BB0B802DBF0195
S1131450FF2793585F4F3AF09E3F510578F00C9464
S1131460ED0A0C94380B5F3FE4F3983ED4F3869571
S113147077956795B795F7959F5FC9F7880F911D85
S11314809695879597F90895E1E0660F771F881F71
S1131490BB1F621773078407BA0720F0621B730B24
S11314A0840BBA0BEE1F88F7E09508950E945D0A3D
S11314B06894B1110C94380B08950E941D0B88F0A8
S11314C09F5798F0B92F9927B751B0F0E1F0660F04
S11314D0771F881F991F1AF0BA95C9F714C0B13045
S11314E091F00E94370BB1E008950C94370B672FED
S11314F0782F8827B85F39F0B93FCCF38695779574
S11315006795B395D9F73EF490958095709561955C
S11315107F4F8F4F9F4F0895E89409C097FB3EF487
S113152090958095709561957F4F8F4F9F4F99232C
S1131530A9F0F92F96E9BB279395F69587957795AA
S11315406795B795F111F8CFFAF4BB0F11F460FF6A
S11315501BC06F5F7F4F8F4F9F4F16C0882311F0C2
S113156096E911C0772321F09EE8872F762F05C0D6
S1131570662371F096E8862F70E060E02AF09A9571
S1131580660F771F881FDAF7880F9695879597F966
S11315900895990F0008550FAA0BE0E8FEEF161600
S11315A01706E807F907C0F012161306E407F50753
S11315B098F0621B730B840B950B39F40A2661F0C7
S11315C0232B242B252B21F408950A2609F4A1406A
S11315D0A6958FEF811D811D089597F99F6780E877
S11315E070E060E008959FEF80EC089500240A9471
S11315F01616170618060906089500240A941216EA
S11316001306140605060895092E0394000C11F41C
S1131610882352F0BB0F40F4BF2B11F460FF04C0C9
S11316206F5F7F4F8F4F9F4F089557FD9058440F22
S1131630551F59F05F3F71F04795880F97FB991F2D
S113164061F09F3F79F087950895121613061406EA
S1131650551FF2CF4695F1DF08C016161706180677
S1131660991FF1CF86957105610508940895E89452
S1131670BB2766277727CB0197F908950E94C90AEB
S113168008F48FEF08950E94560B0C94040B0E94EB
S1131690F60A38F00E94FD0A20F0952311F00C940C
S11316A0ED0A0C94F30A11240C94380B0E94150BC8
S11316B070F3959FC1F3950F50E0551F629FF001A1
S11316C0729FBB27F00DB11D639FAA27F00DB11DBA
S11316D0AA1F649F6627B00DA11D661F829F222743
S11316E0B00DA11D621F739FB00DA11D621F839FCA
S11316F0A00D611D221F749F3327A00D611D231FA0
S1131700849F600D211D822F762F6A2F11249F57ED
S113171050409AF0F1F088234AF0EE0FFF1FBB1FF0
S1131720661F771F881F91505040A9F79E3F5105AF
S113173080F00C94ED0A0C94380B5F3FE4F3983E70
S1131740D4F3869577956795B795F795E7959F5F59
S1131750C1F7FE2B880F911D9695879597F90895EB
S1131760A29FB001B39FC001A39F700D811D1124DE
S1131770911DB29F700D811D1124911D0895B7FF15
S11317800C94C70B0E94C70B821B930B08950E94F5
S1131790B00BA59F900DB49F900DA49F800D911D3B
S10B17A011240895F894FFCF11
S11317A8496E76616C696420496E7075740053796A
S11317B86E746178204572726F72004D617468208E
S11317C84572726F72000704014308050230090666
S11317D8033D2F2A2D2B4D6F64652031004D6F6416
S10717E86520320042
S9030000FC
